:100000000C942A000C94C8010C949E010C94470097
:100010000C9447000C9447000C9447000C94470044
:100020000C9447000C9447000C94EC010C9447008E
:100030000C9447000C9447000C9447000C94470024
:100040000C9447000C9447000C9447000C94470014
:100050000C94470011241FBECFE5D4E0DEBFCDBF16
:1000600010E0A0E6B0E0EEEEF6E002C005900D92E2
:10007000A236B107D9F710E0A2E6B0E001C01D92A8
:10008000AC37B107E1F70E94C8000C9475030C94DB
:10009000000098E790936000E82FE150E61BFF27EF
:1000A000E7FDF0952091620030916300BF01621B73
:1000B000730B962F990F990F990FF0936300E093AC
:1000C00062009F01220F331F2E0F3F1F920F841BD0
:1000D000980F943C0CF494EC892F9D330CF08CE336
:1000E0000895782F88E680936000472F552747FDB5
:1000F00050958091640090916500841795071CF4D9
:100100008FEF9FEF05C04817590734F481E090E066
:100110009093670080936600CA01959587959595A1
:100120008795682F2091660030916700EFEF2F3F91
:100130003E0751F02130310511F0872F12C077FDB5
:100140000DC07A356CF404C0773A54F0171634F0C9
:10015000CA0195958795681B862F03C0860F01C03D
:1001600080E050936500409364008A3B0CF48AEB76
:1001700087340CF086E4089590916000181624F4FA
:10018000292F281B23BD02C093BD980F9CBF089543
:10019000BE9A8DB1806C8DB98E9A85B7896085BF06
:1001A0008BB7806C8BBF0E94B2010E94BF028FB7D9
:1001B00080688FBF21E030E014C08091680090918A
:1001C00069000196909369008093680080916800AF
:1001D000909169008F3F910524F03093690020933E
:1001E000680080916800909169008F3F91052CF321
:1001F00080E090E008959BBD8ABD85E08EBD4423DC
:1002000021F4862F0E9469030FC0413021F4862F0C
:100210000E94430309C0423021F4862F0E94370315
:1002200003C0862F0E94CD0208B604FEFDCF80E0F9
:100230000E94CD021EBC1DBC1CBC80E188BF08957D
:10024000382F361B932F9150883240F4333048F1C9
:1002500097FF02C091951BC0892F0CC0483208F54A
:10026000421B242F842F8F5F8330D8F047FF0FC0AD
:100270002195822F90E033E0880F991F3A95E1F79E
:1002800067E041E00E94FB0021E030E00CC0892FD4
:1002900090E023E0880F991F2A95E1F767E042E09C
:1002A000F1CF20E030E0C9010895803489F480E086
:1002B00096E268E040E00E94FB0080E09FE060E0A2
:1002C00043E00E94FB0080E098E167E041E012C05B
:1002D000803629F580E096E268E040E00E94FB006D
:1002E00080E09FE060E043E00E94FB0080E098E156
:1002F00067E042E00E94FB0080E09FE060E043E0B6
:100300000E94FB0080E092E368E040E00E94FB0076
:1003100080E090E260E043E00E94FB0008958032BC
:1003200061F480E092E568E040E00E94FB0080E03C
:1003300090E260E043E00E94FB0008951F920F925C
:100340000FB60F9211248F9381E080936E008F91EE
:100350000F900FBE0F901F90189580916D008FB970
:10036000969A0895829B0AC081E090E090936B007A
:1003700080936A0080E00E94CD020895829907C0B0
:1003800010926B0010926A0080E00E94CD020895E6
:100390001F920F920FB60F9211242F933F934F93FA
:1003A0005F936F937F938F939F93AF93BF93EF93DD
:1003B000FF930E94B201FF91EF91BF91AF919F9186
:1003C0008F917F916F915F914F913F912F910F90FE
:1003D0000FBE0F901F9018951F920F920FB60F929D
:1003E00011242F933F934F935F936F937F938F933A
:1003F0009F93AF93BF93EF93FF9396988FB18093A2
:100400006D0080916C008FB9969A779BFECF96987D
:100410008FB180936C001FB80E941F02FF91EF9173
:10042000BF91AF919F918F917F916F915F914F910C
:100430003F912F910F900FBE0F901F901895CF9363
:10044000DF93C0916A00D0916B00C130D10509F0F3
:1004500042C080916D0090E081FF0AC080916C00E5
:10046000807E0E945501D0937100C093700084C0BB
:10047000817190708131910529F480916C000E9406
:10048000710026C0019709F077C020916C0080911F
:10049000740027FF05C02F77209375008F5F05C07C
:1004A000813031F42093730082E08093740064C043
:1004B000823021F42093720083E0F7CF1092740011
:1004C0008091750060917300409172000E94490014
:1004D0000E94BC0051C0CD2B09F04EC080916D0030
:1004E00080FD4AC080916C00982F907F90936F00A0
:1004F000992321F48F700E94CD023EC0903121F4E7
:100500008F700E94690338C0903221F48F700E946E
:100510005C0332C0903321F48F700E944F032CC0D3
:10052000903421F48F700E94430326C0903521F44B
:100530008F700E94370320C0903621F48F700E9484
:1005400029031AC0903721F48F700E94200314C031
:10055000903821F48F700E9417030EC0903919F45F
:100560000E94D00209C0903A19F40E94DE0204C031
:10057000903B11F40E94EB02DF91CF91089583B775
:10058000896683BF85B5896685BD81B3806B81BB74
:10059000BB9A82B38F7C82BB08951CBE13BC0895A6
:1005A00080917600909177002FEF813F92072CF099
:1005B000019790937700809376000895809176005C
:1005C00090917700803191052CF4019690937700FB
:1005D0008093760008951092770010927600089527
:1005E000880F8659209176003091770090E012169E
:1005F00013067CF40197909379008093780001961C
:100600002E5F3F4F280F391F30937B0020937A00D5
:10061000089520953095280F391F30937900209345
:100620007800029690937B0080937A0008950E9450
:10063000F00282B38F7C82BB809178008CBF0895DA
:100640000E94F00282B38F7C82BB80917A0083BDCE
:1006500008950E94F00282B3806382BB809178008B
:100660008A5F8CBF80917A008A5F83BD08950E9463
:10067000F0029598949A809178008A5F8CBF80915F
:100680007A0083BD08950E94F0029498959A809113
:1006900078008CBF80917A008A5F83BD08950E94A4
:1006A000F00282B38F7C82BB8091780086508CBF31
:1006B00080917A0083BD08950E94F00282B38F7CFE
:1006C00082BB809178008CBF80917A00865083BD78
:1006D00008950E94F00282B38F7C82BB80917800E3
:0E06E0008CBF80917A0083BD0895F894FFCFFF
:0206EE006900A1
:040000050080006E09
:00000001FF
