:100000000C942A000C94A3030C9447000C94470012
:100010000C9447000C9447000C9447000C949301F7
:100020000C9486010C9447000C9479030C944700BF
:100030000C9447000C9447000C942B030C9447003D
:100040000C9447000C9447000C9447000C94470014
:100050000C94470011241FBECFE5D4E0DEBFCDBF16
:1000600011E0A8E6B1E001C01D92A238B107E1F7A6
:1000700011E0A0E6B0E0E0EDF2E102C005900D92E3
:10008000A836B107D9F70E945E010C9466090C945A
:10009000000020E030E08077803711F421E030E08C
:1000A000C901089520916A0130916B018130910559
:1000B00039F42F5F3F4F30936B0120936A0147C0A3
:1000C000121613060CF043C0892B09F040C0809132
:1000D0006C0190916D01009779F430937401209335
:1000E000730110926B0110926A0181E090E090938D
:1000F0006D0180936C012BC0019749F530937E010F
:1001000020937D0110926B0110926A0110926D0193
:1001100010926C014091730150917401CA01821BCD
:10012000930B03972CF081E08DBB21E030E011C0F0
:10013000241B350B233031052CF082E08DBB22E0EF
:1001400030E007C083E08DBB23E030E002C020E058
:1001500030E0C90108959C01809170019091710176
:10016000892B81F421303105D9F4809180018C33C1
:10017000B8F4809175018C3398F430937101209319
:1001800070010895232B61F4809180018D3340F03C
:10019000809175018D3320F01092710110927001E1
:1001A00008958D3348F46D3338F4282F30E0261B42
:1001B0003109220F331F02C020E030E0C901089549
:1001C0000F931F93CF93DF93FC01C0E0D0E000E0DA
:1001D00010E020E030E0209759F4CF0162E070E0B9
:1001E0000E949608019731F48901C1E0D0E002C075
:1001F000E0FF09C0F595E7952F5F3F4F2B303105A4
:1002000051F72AE030E0200F311F35952795C901BD
:10021000DF91CF911F910F91089567707070762FC5
:100220006627860F971F0E94E0008430910581F1B8
:10023000853091057CF481309105F1F08230910593
:100240001CF4892BE1F036C082309105D9F0039778
:1002500089F51BC08830910521F18930910534F46E
:1002600086309105C1F0079729F518C089309105AE
:10027000D9F00A97F9F41BC026EA3FEF1DC022E926
:100280003FEF1AC025EB3FEF17C02EEC3FEF14C035
:1002900027EE3FEF11C029E130E00EC022E330E04D
:1002A0000BC02BE430E008C02AE530E005C02EE6A4
:1002B00030E002C020E030E0C90108950E946303ED
:1002C0000E944F038FB780688FBF21E030E014C0D9
:1002D00080916801909169010196909369018093E2
:1002E000680180916801909169018F3F910524F028
:1002F00030936901209368018091680190916901B0
:100300008F3F91052CF380E090E008951F920F92AB
:100310000FB60F921124369A10927B010F900FBEE8
:100320000F901F9018951F920F920FB60F921124E5
:100330008F9385B38C7385BB87B1836087B985E064
:1003400080937B01369A8F910F900FBE0F901F9074
:1003500018959C016130710561F43695322F222782
:100360003795279580916F018695822B80936F0139
:1003700008956230710559F4220F331F220F331F85
:1003800080917A018695822B80937A01089510924C
:100390007A0110926F01089520E030E0909172018F
:1003A000981710F421E030E0C901089580917B0195
:1003B000873009F46BC0883088F4833009F446C074
:1003C000843028F4813069F18230A8F521C085306D
:1003D00009F45CC0863008F056C044C08B3009F484
:1003E00055C08C3038F4893009F450C08A3008F098
:1003F0004AC044C08D3009F451C08D3008F448C063
:100400008E3009F44DC08F3009F44EC080E008955D
:100410003A9A85B190E00E9464048093800181E063
:100420000895389A3A9885B190E00E941A04809312
:10043000790182E0089587B1856087B985B190E040
:100440000E940B058093750183E00895399A87B166
:100450008A7F87B985B190E00E94AE0480936E01D7
:1004600084E00895389A85B38C7385BB85B190E09C
:100470000E94D00380937F0185E00895AE9A85B3F2
:100480008C7F85BB09C0A99AA89806C0A89A04C009
:1004900085B38C7B85BBAF9A86E00895A89A02C08D
:1004A000A99AA89887E0089587B18C7F87B9A89A00
:1004B00087E008950E94D6018130A9F480917001EF
:1004C00090917101019709F065C08091760190913A
:1004D0007701019709F05EC081EC80937C018091E7
:1004E0008001806831C08230A1F4809170019091C8
:1004F0007101019709F04EC08091760190917701CA
:10050000019709F047C081EC80937C0180917901CB
:100510001BC0833091F4809170019091710101971B
:10052000C9F58091760190917701019799F581EC59
:1005300080937C018091750107C0843051F481EC77
:1005400080937C0180916E01809378010E947203F8
:1005500021C08530F9F0863069F495B120E030E0B3
:1005600080917201891710F421E030E0C90161E047
:1005700070E00EC0873071F495B120E030E08091DA
:100580007201891710F421E030E0C90162E070E0E7
:100590000E94A90180917B018F3009F055C08091A4
:1005A000700190917101009709F580917601909109
:1005B0007701019709F041C060917A0180916F0144
:1005C00090E070E00E940D018093780181E58093B6
:1005D0007C010E94720380916F01882371F58091E4
:1005E0007A01882351F581E090E025C0019729F533
:1005F00080917601909177010197F9F480916F01D4
:100600000E9449000E9452000E945B050E947205F0
:10061000892B39F00E9458050E94910584E00E94C0
:100620005B0580916F01882341F080917A018823D6
:1006300021F080E090E00E94AB0080E090E060E07C
:1006400070E00E94A90108958F3020F48F5F80939D
:100650007B01369A08951F920F920FB60F921124C4
:100660002F933F934F935F936F937F938F939F93BA
:10067000AF93BF93EF93FF930E945A02FF91EF91C4
:10068000BF91AF919F918F917F916F915F914F91AA
:100690003F912F910F900FBE0F901F9018953D9A8C
:1006A00086B18F6886B984B3836C84BB85B3836C51
:1006B00085BB89B7846089BF8EB582608EBD88EAAC
:1006C00080937201089587B3886487BB8DB1806C75
:1006D0008DB98BB780648BBF85B7816085BF0E9461
:1006E000C003089580917C018FB9C39A80E090E0A7
:1006F00008951F920F920FB60F9211248F939F931C
:10070000C3989FB190937C01809178018FB9C39A6F
:10071000779BFECFC3988FB1809378011FB89F322B
:1007200011F4809372019F918F910F900FBE0F90E3
:100730001F90189580917C018F3221F4809178016F
:100740008093720108951F920F920FB60F92112499
:100750008F939F93829B07C081E090E090937701F5
:100760008093760106C0829904C01092770110929E
:1007700076019F918F910F900FBE0F901F9018954B
:10078000829B07C081E090E090937701809376018F
:100790000895829904C0109277011092760108950D
:1007A0009C018D549040C39778F467EB70E0621B16
:1007B000730B882777FD8095982F0E94480624EABE
:1007C00030E74DE250E425C0C901C2974B9778F459
:1007D00060E870E0621B730B882777FD8095982F87
:1007E0000E94480624E13EEA47EA5FE312C0C901DD
:1007F0004A974897A8F469E470E0621B730B882756
:1008000077FD8095982F0E94480626EF38E24CED40
:100810005EE30E949C050E94F4080E94A60608C0A0
:10082000203831051CF468E770E002C064E170E034
:10083000CB0108959C018B5490408F9778F46BEA1C
:1008400070E0621B730B882777FD8095982F0E94BC
:10085000480626EF38E24CE150E425C0C901C297B2
:10086000499778F468E770E0621B730B882777FD7F
:100870008095982F0E9448062FE832EC45E95FE307
:1008800012C0C90147974B97A8F469E470E0621B56
:10089000730B882777FD8095982F0E9448062DECD2
:1008A0003CEC4CEC5EE30E949C050E94F4080E9424
:1008B000A60608C02A3731051CF468E770E002C0BC
:1008C00064E170E0CB0108959C018E549040C09784
:1008D00078F461EB70E0621B730B882777FD8095DD
:1008E000982F0E9448062AE037ED43E250E425C0E5
:1008F000C9018E97809778F46DE770E0621B730BE7
:10090000882777FD8095982F0E9448062EEA37E4C5
:1009100041EA5FE312C0C90148974697A8F468E42A
:1009200070E0621B730B882777FD8095982F0E94DB
:1009300048062DEC3CEC4CEC5EE30E949C050E94CA
:10094000F4080E94A60608C02E3731051CF468E79B
:1009500070E002C064E170E0CB0108959C018A540C
:100960009040C69778F465EB70E0621B730B8827A4
:1009700077FD8095982F0E94480624EA30E74DE2E3
:1009800050E438C0C901C297489778F469E770E02D
:10099000621B730B882777FD8095982F0E9448066D
:1009A00028E431EE4AE95FE325C0C9014F97439738
:1009B00078F466E570E0621B730B882777FD8095FD
:1009C000982F0E94480622E538EB4EE15FE312C003
:1009D000C90148970797A8F461E370E0621B730BA5
:1009E000882777FD8095982F0E9448062EEA37E4E5
:1009F00041E65EE30E949C050E94F4080E94A60660
:100A000008C0203831051CF468E770E002C064E1DA
:100A100070E0CB0108959C018B549040C39778F40B
:100A200061EB70E0621B730B882777FD8095982F30
:100A30000E94480624E13EEA47E250E425C0C9018D
:100A4000C297499778F46BE770E0621B730B8827B5
:100A500077FD8095982F0E94480620E030E040EA1C
:100A60005FE312C0C90149974997A8F466E470E0B2
:100A7000621B730B882777FD8095982F0E9448068C
:100A800024E13EEA47EC5EE30E949C050E94F408E4
:100A90000E94A60608C02E3731051CF468E770E0F6
:100AA00002C064E170E0CB01089580938101089554
:100AB000809181010895823061F0833018F4813093
:100AC00081F405C0833039F0843059F408C080E6E1
:100AD00003C080E401C080E28093810108951092F8
:100AE00081010895209175012C3320F480917F01BC
:100AF0008C3338F0809180018C3318F021E030E0A5
:100B00000EC080917F018C3318F420E030E007C0E4
:100B100080E090E02C3310F081E090E09C01C9016E
:100B20000895982F803E39F08FEC80937C0190934C
:100B300078010E9472030895A8E1B0E0E2EAF5E0CE
:100B40000C94C50869837A838B839C832D833E83B1
:100B50004F835887B9E0EB2EF12CEC0EFD1ECE0131
:100B60000196B7010E941E088E010F5E1F4FCE0135
:100B70000596B8010E941E082985223008F47EC01F
:100B80003989323010F4B8017CC08A859A89892766
:100B90008A87243011F0223031F4231709F06EC017
:100BA00060E670E06EC0343039F41D861E861F8604
:100BB000188A1C861B8604C0323021F484E08987A1
:100BC000B7015FC02B853C858B899C89281B390B1D
:100BD0003C872B87ED84FE840F851889AD88BE88FD
:100BE000CF88D88CEA14FB040C051D0540F4EE0CEC
:100BF000FF1C001F111F215030403C872B8720E035
:100C000030E040E050E080E090E0A0E0B0E460E060
:100C100070E0EA14FB040C051D0540F0282B392B6D
:100C20004A2B5B2BEA18FB080C091D09B695A79502
:100C300097958795EE0CFF1C001F111F6F5F7F4F6C
:100C40006F31710531F7DA01C9018F779070A070AB
:100C5000B07080349105A105B10561F427FD0AC08B
:100C6000E114F1040105110529F0205C3F4F4F4FBD
:100C70005F4F20782D873E874F87588BBE01675F77
:100C80007F4FCB010E9449076896EAE00C94E10887
:100C9000A8E0B0E0EEE4F6E00C94C6089B01AC01DD
:100CA00083E08983DA01C9018827B7FD83959927F5
:100CB000AA27BB27B82E211531054105510519F486
:100CC00082E089833AC08823A9F0203080E0380789
:100CD00080E0480780E8580729F460E070E080E091
:100CE0009FEC30C0EE24FF248701E21AF30A040BC4
:100CF000150B02C079018A018EE1C82ED12CDC824D
:100D0000CB82ED82FE820F831887C801B7010E9453
:100D1000FA0601971816190684F4082E04C0EE0C82
:100D2000FF1C001F111F0A94D2F7ED82FE820F8371
:100D30001887C81AD90ADC82CB82BA82CE01019602
:100D40000E9449072896E9E00C94E208ACE0B0E084
:100D5000ECEAF6E00C94CD0869837A838B839C835C
:100D6000CE010196BE016B5F7F4F0E941E088D81F0
:100D7000823061F1823050F1843021F48E818823F9
:100D800051F12EC02F81388537FD20C06E812F3163
:100D900031051CF06623F9F023C08EE190E0821B40
:100DA000930B29853A854B855C8504C056954795FC
:100DB000379527958A95D2F76623B1F050954095DF
:100DC000309521953F4F4F4F5F4F0EC020E030E0F0
:100DD00040E050E009C02FEF3FEF4FEF5FE704C066
:100DE00020E030E040E050E8B901CA012C96E2E092
:100DF0000C94E908EF92FF920F931F937B018C01F3
:100E000080E0E81680E0F80681E0080780E0180737
:100E100088F48FEFE816F1040105110531F028F090
:100E200088E090E0A0E0B0E017C080E090E0A0E0B3
:100E3000B0E012C080E0E81680E0F80680E0080725
:100E400081E0180728F088E190E0A0E0B0E004C05D
:100E500080E190E0A0E0B0E020E230E040E050E04F
:100E6000281B390B4A0B5B0B04C016950795F794AA
:100E7000E7948A95D2F7F701E859FF4F8081281B44
:100E8000310941095109C9011F910F91FF90EF905C
:100E90000895DF92EF92FF920F931F93FC01E4807D
:100EA000F58006811781D1808081823048F480E00E
:100EB00090E0A0E1B0E0E82AF92A0A2B1B2BA5C09C
:100EC000843009F49FC0823021F4EE24FF2487018E
:100ED00005C0E114F1040105110519F4E0E0F0E0AA
:100EE00096C0628173819FEF623879070CF05BC016
:100EF00022E83FEF261B370B2A3131052CF020E08A
:100F000030E040E050E02AC0B801A701022E04C042
:100F100076956795579547950A94D2F781E090E0CA
:100F2000A0E0B0E004C0880F991FAA1FBB1F2A953C
:100F3000D2F70197A109B1098E219F21A023B123E6
:100F40000097A105B10521F081E090E0A0E0B0E0BC
:100F50009A01AB01282B392B4A2B5B2BDA01C901F3
:100F60008F779070A070B07080349105A105B105A5
:100F700039F427FF09C0205C3F4F4F4F5F4F04C03B
:100F8000215C3F4F4F4F5F4FE0E0F0E02030A0E0AA
:100F90003A07A0E04A07A0E45A0710F0E1E0F0E0C9
:100FA00079018A0127C06038710564F5FB01E158B9
:100FB000FF4FD801C7018F779070A070B070803458
:100FC0009105A105B10539F4E7FE0DC080E490E07C
:100FD000A0E0B0E004C08FE390E0A0E0B0E0E80E55
:100FE000F91E0A1F1B1F17FF05C016950795F794DA
:100FF000E794319687E016950795F794E7948A95DC
:10100000D1F705C0EE24FF248701EFEFF0E06E2F4B
:10101000679566276795902F9F77D794DD24D7949F
:101020008E2F8695492F462B582F5D29B701CA016F
:101030001F910F91FF90EF90DF900895FC01DB016D
:10104000408151812281622F6F7770E0221F222719
:10105000221F9381892F880F822B282F30E0991F20
:101060009927991F11969C93119721153105A9F580
:10107000411551056105710511F482E037C082E820
:101080009FEF13969C938E9312979A01AB0167E0A2
:10109000220F331F441F551F6A95D1F783E08C93AD
:1010A0000DC0220F331F441F551F12968D919C9126
:1010B0001397019713969C938E931297203080E09C
:1010C000380780E0480780E4580758F314962D93BA
:1010D0003D934D935C93179708952F3F310579F415
:1010E000411551056105710519F484E08C9308954B
:1010F00064FF03C081E08C9312C01C9210C02F5774
:10110000304013963C932E93129783E08C9387E0A4
:10111000440F551F661F771F8A95D1F77064149688
:101120004D935D936D937C931797089597FB092ECC
:1011300007260AD077FD04D00CD006D000201AF480
:10114000709561957F4F0895F6F7909581959F4F23
:101150000895AA1BBB1B51E107C0AA1FBB1FA617FE
:10116000B70710F0A61BB70B881F991F5A95A9F750
:1011700080959095BC01CD0108952F923F924F929A
:101180005F926F927F928F929F92AF92BF92CF9217
:10119000DF92EF92FF920F931F93CF93DF93CDB720
:1011A000DEB7CA1BDB0B0FB6F894DEBF0FBECDBF98
:1011B00009942A88398848885F846E847D848C8469
:1011C0009B84AA84B984C884DF80EE80FD800C8172
:1011D0001B81AA81B981CE0FD11D0FB6F894DEBF55
:1011E0000FBECDBFED01089550D0E0F09E37D8F08E
:1011F0009639B8F49E3848F4672F782F8827985F7F
:10120000F9CF86957795679593959539D0F3B62F55
:10121000B1706B0F711D811D20F4879577956795CF
:10122000939502C01CC04CC0882371F4772321F031
:101230009850872B762F07C0662311F499270DC08D
:101240009051862B70E060E02AF09A95660F771F28
:10125000881FDAF7880F9695879597F908959F3F2D
:1012600031F0915020F4879577956795B795880F61
:10127000911D9695879597F9089557FD9058440FBD
:10128000551F59F05F3F71F04795880F97FB991FE5
:1012900061F09F3F79F087950895121613061406A2
:1012A000551FF2CF4695F1DF08C01616170618062F
:1012B000991FF1CF86957105610508940895E8940A
:1012C000BB2766277727CB0197F90895F894FFCFBE
:1012D00000000000000000000001020203030303FD
:1012E00004040404040404040505050505050505B6
:1012F0000505050505050505060606060606060696
:10130000060606060606060606060606060606067D
:101310000606060606060606070707070707070765
:10132000070707070707070707070707070707074D
:10133000070707070707070707070707070707073D
:10134000070707070707070707070707070707072D
:101350000707070707070707080808080808080815
:1013600008080808080808080808080808080808FD
:1013700008080808080808080808080808080808ED
:1013800008080808080808080808080808080808DD
:1013900008080808080808080808080808080808CD
:1013A00008080808080808080808080808080808BD
:1013B00008080808080808080808080808080808AD
:1013C000080808080808080808080808080808089D
:0813D0000808080808080808D5
:00000001FF
