:100000000C942A000C943C000C945D010C943C0070
:100010000C943C000C943C000C943C000C943C0070
:100020000C943C000C943C000C943C000C94650037
:100030000C943C000C943C000C943C000C943C0050
:100040000C943C000C943C000C9421010C943C005A
:100050000C943C0011241FBECFE5D4E0DEBFCDBF21
:1000600010E0A0E6B0E001C01D92A236B107E1F7B2
:100070000E94A6000C9483010C94000090BD89B9E5
:1000800080E98AB986E880BD8FB780688FBF81B369
:10009000826381BB80E282BB08951F9380E282BBB2
:1000A0005F9BFECF1CB10E944D00812F1F910895D0
:1000B000982F88E88AB95D9BFECF80E48BB980E2F7
:1000C00082BB80E182BB9CB908951F920F920FB64C
:1000D0000F9211242F933F934F935F936F937F93CE
:1000E0008F939F93AF93BF93EF93FF938CB15F9BDD
:1000F000FECF6CB10E94EA00FF91EF91BF91AF91EA
:100100009F918F917F916F915F914F913F912F912F
:100110000F900FBE0F901F90189587B3886B87BB09
:100120008E9A8DB180658DB985B78D6085BF84B796
:10013000806484BF8BB7806E8BBF88B3886188BBB7
:100140008FB780688FBF80E090E008950E948D0097
:1001500088E090E00E943E0021E030E014C08091F1
:10016000600090916100019690936100809360001F
:1001700080916000909161008F3F910524F0309351
:1001800061002093600080916000909161008F3F3A
:1001900091052CF380E090E008958FB9779BFECF16
:1001A0008FB190E008951F93162F0E9458005E9B18
:1001B000FECF812F0E9458005E9BFECF80E48BB95A
:1001C00088E08AB980E98AB980E282BB80E090E069
:1001D0001F9108950F931F93182F062F807E803252
:1001E00021F4812F0E940B0111C0803421F4812F52
:1001F0000E9447010BC0803829F0803C39F4812FE0
:100200000E944701812F602F0E94D30080E090E080
:100210001F910F910895C3988FB9779BFECF9FB11F
:100220000AB605FEFDCF8AB780728ABF6FB9779B89
:10023000FECF6FB1C39A892F0E94EA0080E090E060
:1002400008951F920F920FB60F9211242F933F9390
:100250004F935F936F937F938F939F93AF93BF93CE
:10026000EF93FF9380E060E00E940B01FF91EF911C
:10027000BF91AF919F918F917F916F915F914F91BE
:100280003F912F910F900FBE0F901F901895C4981B
:100290008FB9779BFECF9FB10AB607FEFDCF8AB715
:1002A00080788ABF6FB9779BFECF6FB1C49A892FD0
:1002B0000E94EA0080E090E008951F920F920FB62E
:1002C0000F9211242F933F934F935F936F937F93DC
:1002D0008F939F93AF93BF93EF93FF9380E060E082
:1002E0000E944701FF91EF91BF91AF919F918F9134
:1002F0007F916F915F914F913F912F910F900FBE22
:0A0300000F901F901895F894FFCF9E
:00000001FF
